{
  "contractName": "Wallet",
  "abi": [
    {
      "inputs": [],
      "stateMutability": "nonpayable",
      "type": "constructor"
    },
    {
      "inputs": [],
      "name": "balance",
      "outputs": [
        {
          "internalType": "uint256",
          "name": "",
          "type": "uint256"
        }
      ],
      "stateMutability": "view",
      "type": "function"
    },
    {
      "inputs": [],
      "name": "deposit",
      "outputs": [],
      "stateMutability": "payable",
      "type": "function"
    },
    {
      "inputs": [
        {
          "internalType": "uint256",
          "name": "amount",
          "type": "uint256"
        }
      ],
      "name": "withdraw",
      "outputs": [],
      "stateMutability": "nonpayable",
      "type": "function"
    },
    {
      "inputs": [
        {
          "internalType": "address",
          "name": "_newOwner",
          "type": "address"
        }
      ],
      "name": "transferOwnership",
      "outputs": [],
      "stateMutability": "nonpayable",
      "type": "function"
    }
  ],
  "bytecode": "0x608060405234801561000f575f80fd5b50335f806101000a81548173ffffffffffffffffffffffffffffffffffffffff021916908373ffffffffffffffffffffffffffffffffffffffff1602179055506106928061005c5f395ff3fe60806040526004361061003e575f3560e01c80632e1a7d4d14610042578063b69ef8a81461006a578063d0e30db014610094578063f2fde38b1461009e575b5f80fd5b34801561004d575f80fd5b506100686004803603810190610063919061031b565b6100c6565b005b348015610075575f80fd5b5061007e6101b3565b60405161008b9190610355565b60405180910390f35b61009c6101b9565b005b3480156100a9575f80fd5b506100c460048036038101906100bf91906103c8565b610215565b005b5f8054906101000a900473ffffffffffffffffffffffffffffffffffffffff1673ffffffffffffffffffffffffffffffffffffffff163373ffffffffffffffffffffffffffffffffffffffff1614610153576040517f08c379a000000000000000000000000000000000000000000000000000000000815260040161014a9061044d565b60405180910390fd5b600154811015610198576040517f08c379a000000000000000000000000000000000000000000000000000000000815260040161018f906104b5565b60405180910390fd5b8060015f8282546101a99190610500565b9250508190555050565b60015481565b5f34116101fb576040517f08c379a00000000000000000000000000000000000000000000000000000000081526004016101f2906105a3565b60405180910390fd5b3460015f82825461020c91906105c1565b92505081905550565b5f8054906101000a900473ffffffffffffffffffffffffffffffffffffffff1673ffffffffffffffffffffffffffffffffffffffff163373ffffffffffffffffffffffffffffffffffffffff16146102a2576040517f08c379a00000000000000000000000000000000000000000000000000000000081526004016102999061063e565b60405180910390fd5b805f806101000a81548173ffffffffffffffffffffffffffffffffffffffff021916908373ffffffffffffffffffffffffffffffffffffffff16021790555050565b5f80fd5b5f819050919050565b6102fa816102e8565b8114610304575f80fd5b50565b5f81359050610315816102f1565b92915050565b5f602082840312156103305761032f6102e4565b5b5f61033d84828501610307565b91505092915050565b61034f816102e8565b82525050565b5f6020820190506103685f830184610346565b92915050565b5f73ffffffffffffffffffffffffffffffffffffffff82169050919050565b5f6103978261036e565b9050919050565b6103a78161038d565b81146103b1575f80fd5b50565b5f813590506103c28161039e565b92915050565b5f602082840312156103dd576103dc6102e4565b5b5f6103ea848285016103b4565b91505092915050565b5f82825260208201905092915050565b7f4f6e6c79206f776e65722063616e2077697468647261772066756e64730000005f82015250565b5f610437601d836103f3565b915061044282610403565b602082019050919050565b5f6020820190508181035f8301526104648161042b565b9050919050565b7f496e73756666696369656e742046756e647300000000000000000000000000005f82015250565b5f61049f6012836103f3565b91506104aa8261046b565b602082019050919050565b5f6020820190508181035f8301526104cc81610493565b9050919050565b7f4e487b71000000000000000000000000000000000000000000000000000000005f52601160045260245ffd5b5f61050a826102e8565b9150610515836102e8565b925082820390508181111561052d5761052c6104d3565b5b92915050565b7f5a65726f20657468657273207472616e616374696f6e206e6f7420616c6c6f775f8201527f6564000000000000000000000000000000000000000000000000000000000000602082015250565b5f61058d6022836103f3565b915061059882610533565b604082019050919050565b5f6020820190508181035f8301526105ba81610581565b9050919050565b5f6105cb826102e8565b91506105d6836102e8565b92508282019050808211156105ee576105ed6104d3565b5b92915050565b7f4163636573732064656e696564210000000000000000000000000000000000005f82015250565b5f610628600e836103f3565b9150610633826105f4565b602082019050919050565b5f6020820190508181035f8301526106558161061c565b905091905056fea2646970667358221220c48356c4af6a48b1486ba841541046593fdf1bff7a9e6d32600634db13c8416564736f6c63430008140033",
  "immutableReferences": {},
  "source": "// SPDX-License-Identifier: MIT\n\npragma solidity ^0.8.19;\n\ncontract Wallet {\n    address private _owner;\n    uint public balance;\n\n    constructor(){\n        _owner = msg.sender;\n    }\n\n    function deposit() public payable {\n        require(msg.value > 0, \"Zero ethers tranaction not allowed\");\n        balance += msg.value;\n    }\n\n    function withdraw(uint amount) public {\n        require(msg.sender == _owner, \"Only owner can withdraw funds\");\n        require(amount >= balance, \"Insufficient Funds\");\n        balance -= amount;\n    }\n\n    function transferOwnership(address _newOwner) public {\n        require(msg.sender == _owner, \"Access denied!\");\n        _owner = _newOwner;\n    }\n}",
  "sourcePath": "/home/arewageek/dev/web3/truffle/firsts/first-wallet-contract/contracts/WalletContract.sol",
  "compiler": {
    "name": "solc",
    "version": "0.8.20+commit.a1b79de6.Emscripten.clang"
  },
  "schemaVersion": "3.4.14",
  "updatedAt": "2024-03-26T16:54:22.115Z",
  "devdoc": {
    "kind": "dev",
    "methods": {},
    "version": 1
  },
  "userdoc": {
    "kind": "user",
    "methods": {},
    "version": 1
  }
}